:020000040000FA
:100000000C94EF010C9420020C9420020C9420021A
:100010000C9420020C9420020C9420020C942002D8
:100020000C9420020C9420020C9420020C942002C8
:100030000C9420020C9420020C9420020C942002B8
:100040000C9420020C94360E0C9420020C94200286
:100050000C9420020C9420020C9420020C94020DAB
:100060000C9420020C94760D0C944C0D0C942002F0
:100070000C9420020C9420020C9420020C94200278
:100080000C94080E0C9420020C9420020C94200274
:100090000C9420020C9420020C9420020C94200258
:1000A0000C9420020C9420020C94DA0D0C94200283
:1000B0000C9420020C9420020C9420020C94AC0DA1
:1000C0000C9420020C9420020C9420020C94200228
:1000D0000C9420020C9420020C9420020C94200218
:1000E0000C9420020C9469020C94D50B0C945B02C6
:1000F0000C944A040C9497040C94B0030C94700B69
:100100000C94AA140C9477020C945F020C94520283
:100110000C94940B0C94030B0C94570B0C94CB0B7A
:100120000C94C10B0C94640E0C9440020C948A0B3A
:100130000C94B70B0C9481020C94820B0C94120457
:100140000C94E90B0C949E0B0C944A020C948502BF
:100150000C94A1030C946D020C9446020C94660B53
:100160000C9465020C947B020C9455020C947A0B4F
:100170000C94DF0B0C9480020C945C0B0C944E02DC
:100180000C9473020C9474030C9404040C94A80B48
:1001900000407A10F35A00A0724E18090010A5D43E
:1001A000E80000E87648170000E40B54020000CA9B
:1001B0009A3B000000E1F5050000809698000000E1
:1001C00040420F000000A086010000001027000040
:1001D0000000E803000000006400000000000A00C6
:1001E000000000000100000000002C76D888DC67C9
:1001F0004F0823DFC1DFAE59E1B1B796E5E3E45321
:10020000C63AE651997696E8E6C28426EB898C9B3D
:1002100062ED407C6FFCEFBC9C9F40F2BAA56FA5DD
:10022000F490055A2AF75C936B6CF9676DC11BFC5F
:10023000E0E40D47FEF520E6B500D0ED902E03007A
:10024000943577050080841E080000204E0A0000C7
:1002500000C80C333333330F986E12831141EF8D86
:100260002114893BE65516CFFEE6DB18D1844B38C6
:100270001BF77C1D901DA4BBE424203284725E22F7
:100280008100C9F124ECA1E53D272D2D2D2D2D2D2B
:100290002D2D2D2D2D2D2D2D2D0A5365747570208E
:1002A000636F6D706C6574650A2D2D2D2D2D2D2DB0
:1002B0002D2D2D2D2D2D2D2D00000021002400276A
:1002C000002A002D00300033000101000004010766
:1002D000010A0100002200250028002B002E003119
:1002E00000340002010000050108010B010000209C
:1002F000002300260029002C002F003200000100FE
:1003000000030106010901050505050705080808A0
:1003100008020202020A0A08080404040401010196
:10032000010101010103030303030303030407079E
:10033000070C0C0C0C0C0C0C0C020202020606063C
:1003400006060606060B0B0B0B0B0B0B0B01021024
:1003500020200808102040102040800201020108DF
:10036000040201010204081020408080402010088F
:1003700004020180040201804020100804020108E8
:100380000402010102040810204080010204081048
:1003900020408000000A0B02090C0D0E0807030420
:1003A000010000000000000000000000000000004C
:1003B000000000000000000000000000000000122B
:1003C000111000000000000000000000000000000C
:1003D00000000000000000000000640EAA141124B8
:1003E0001FBECFEFD1E2DEBFCDBF00E00CBF13E0F8
:1003F000A0E0B2E0EEE9F8E300E00BBF02C0079036
:100400000D92AE3DB107D9F725E0AEEDB3E001C0E6
:100410001D92A639B207E1F711E0CEEED1E000E07F
:1004200006C021970109802FFE010E94FD19CD3ED3
:10043000D10780E00807A9F70E94540F0C943D1CD7
:100440000C9400008150823108F05AC0E82FF0E08F
:100450008827E25DFD4F8F4F0C94FD194E0252022A
:10046000400246024A02800255025B025F026502B8
:1004700069026D027302770280027B0281028502AB
:10048000809180008F778093800008958091800014
:100490008F7DF9CF80918000877FF5CF84B58F77EE
:1004A00084BD089584B58F7DFBCF8091B0008F7798
:1004B0008093B00008958091B0008F7DF9CF809136
:1004C00090008F77809390000895809190008F7DA9
:1004D000F9CF80919000877FF5CF8091A0008F7732
:1004E0008093A00008958091A0008F7DF9CF809126
:1004F000A000877FF5CF809120018F778093200126
:100500000895809120018F7DF9CF80912001877F10
:10051000F5CFCF93DF93282F30E0F901ED56FC4F54
:100520008491F901E35BFC4FD491F901E95FFC4F41
:10053000C491CC23A1F081110E942202EC2FF0E0A3
:10054000EE0FFF1FE351FD4FA591B491EC91ED2308
:1005500081E090E009F480E0DF91CF91089580E0A0
:1005600090E0FACF1F93CF93DF93282F30E0F9016B
:10057000ED56FC4F8491F901E35BFC4FD491F901F6
:10058000E95FFC4FC491CC23A9F0162F81110E9482
:100590002202EC2FF0E0EE0FFF1FED52FD4FA59170
:1005A000B4918FB7F894EC91111108C0D095DE2367
:1005B000DC938FBFDF91CF911F910895DE2BF8CF91
:1005C000CF93DF9390E0FC01E35BFC4F2491895FC4
:1005D0009C4FFC0184918823C9F090E0880F991FFB
:1005E000FC01E754FD4FA591B491FC01ED52FD4F84
:1005F000C591D49161110DC09FB7F8948C9120954D
:1006000082238C938881282328839FBFDF91CF91F9
:100610000895623051F49FB7F8943C91822F8095F1
:1006200083238C93E8812E2BEFCF8FB7F894EC9136
:100630002E2B2C938FBFEACF3FB7F8948091740490
:1006400090917504A0917604B091770426B5A89B8B
:1006500005C02F3F19F00196A11DB11D3FBFBA2F54
:10066000A92F982F8827BC01CD01620F711D811D14
:10067000911D42E0660F771F881F991F4A95D1F799
:1006800008958F929F92AF92BF92CF92DF92EF9296
:10069000FF924B015C010E941C036B017C010E94D4
:1006A0001C036C197D098E099F09683E7340810502
:1006B0009105A8F321E0821A9108A108B10888EEFB
:1006C000C80E83E0D81EE11CF11C81149104A10422
:1006D000B10429F7FF90EF90DF90CF90BF90AF90DB
:1006E0009F908F9008950895AF92BF92CF92DF921E
:1006F000EF92FF920F931F93CF93DF936C017B01D7
:100700008B01040F151FEB015E01AE18BF08C01767
:10071000D10759F06991D601ED91FC910190F081DA
:10072000E02DC6011995892B79F7C501DF91CF918D
:100730001F910F91FF90EF90DF90CF90BF90AF90FF
:100740000895FC01538D448D252F30E0842F90E0D7
:10075000821B930B541710F0CF96089501970895BC
:10076000FC01918D828D981761F0A28DAE0FBF2F85
:10077000B11D5D968C91928D9F5F9F73928F90E0DB
:1007800008958FEF9FEF08952FB7F8948091780424
:1007900090917904A0917A04B0917B042FBF80934B
:1007A000840490938504A0938604B09387048CE717
:1007B00094E00E94B00397FF26C02FB7F894809171
:1007C000780490917904A0917A04B0917B042FBFB2
:1007D000409184045091850460918604709187044F
:1007E000841B950BA60BB70B40918004509181049C
:1007F000609182047091830484179507A607B70758
:10080000B0F28FEF9FEF0895FC01918D828D9817C4
:1008100031F0828DE80FF11D858D90E008958FEF06
:100820009FEF0895FC01918D228D892F90E0805CCF
:100830009F4F821B91098F73992708958CE794E04D
:100840000E94120421E0892B09F420E0822F0895F0
:10085000FC01A48DA80FB92FB11DA35ABF4F2C9135
:10086000848D90E001968F739927848FA689B7892C
:100870002C93A089B1898C91837080648C93938D23
:10088000848D981306C00288F389E02D80818F7DC6
:1008900080830895EF92FF920F931F93CF93DF937E
:1008A000EC0181E0888F9B8D8C8D98131AC0E889AC
:1008B000F989808185FF15C09FB7F894EE89FF897B
:1008C0006083E889F98980818370806480839FBF19
:1008D00081E090E0DF91CF911F910F91FF90EF9019
:1008E0000895F62E0B8D10E00F5F1F4F0F73112729
:1008F000E02E8C8D8E110CC00FB607FCFACFE88964
:10090000F989808185FFF5CFCE010E942804F1CFBF
:10091000EB8DEC0FFD2FF11DE35AFF4FF0829FB7D7
:10092000F8940B8FEA89FB8980818062CFCFCF93C7
:10093000DF93EC01888D8823B9F0AA89BB89E88907
:10094000F9898C9185FD03C0808186FD0DC00FB6AD
:1009500007FCF7CF8C9185FFF2CF808185FFEDCF2B
:10096000CE010E942804E9CFDF91CF91089580E065
:1009700090E0892B29F00E941E0481110E94000042
:1009800080E090E0892B49F080E090E0892B29F00D
:100990000E94000081110E94000080E090E0892BFD
:1009A00049F080E090E0892B29F00E94000081113D
:1009B0000E94000080E090E0892B49F080E090E008
:1009C000892B29F00E94000081110C9400000895E9
:1009D000AF92BF92CF92DF92EF92FF920F931F934D
:1009E000CF93DF936B017A01EC01C152DC4F288178
:1009F0003CE0389F8001399F100D1124A090DE0348
:100A0000B12C27FF1FC0FB011182108288818F5FEC
:100A1000888388819801280F311D87FD3A95F6015A
:100A20002A153B051CF488818C30C4F180819181AA
:100A3000049680349C4908F473C0F601808191814A
:100A4000049670C088819801280F311D87FD3A9562
:100A50002A153B05DCF68881A801480F511D87FD4A
:100A60005A95FA01EE0FFF1FE40FF51FED51FC4FF1
:100A7000808186FFCBCF8881F801E80FF11D87FDCB
:100A8000FA95CF01EE0FFF1FE80FF91FED51FC4F54
:100A9000808160E08F730E94B202B8CF8081918123
:100AA0002881A801420F511D27FD5A959A01FA018C
:100AB000EE0FFF1FE20FF31FED51FC4F218132813A
:100AC000820F931FF7019183808388819801280FFB
:100AD000311D87FD3A95F901EE0FFF1FE20FF31F5D
:100AE000ED51FC4F808186FF22C08881080F111DC7
:100AF00087FD1A95F801EE0FFF1FE00FF11FED5172
:100B0000FC4F808161E08F73DF91CF911F910F9136
:100B1000FF90EF90DF90CF90BF90AF900C94B20217
:100B200080E49CE9F701918380838FEF8883DF91D4
:100B3000CF911F910F91FF90EF90DF90CF90BF90DA
:100B4000AF90089542E050E06AE172E08CE794E0F3
:100B50000C947403CF93DF93FC0101900020E9F71C
:100B60003197AF01481B590BBC018CE794E00E9400
:100B70007403EC010E94A2058C0F9D1FDF91CF91A1
:100B80000895CF93DF93FC01448155816081718189
:100B90008CE794E00E947403EC010E94A2058C0F84
:100BA0009D1FDF91CF910895FC0180819181009775
:100BB00011F00C94F41460E070E0CB010895AF9252
:100BC000BF92CF92DF92EF92FF920F931F93CF933A
:100BD000DF93DC01CD90DC901197C114D10439F082
:100BE0001496CD91DC918C017601209761F4DF9110
:100BF000CF911F910F91FF90EF90DF90CF90BF901A
:100C0000AF90089575015701BFEFAB1ABB0AF7010A
:100C10008081082E000C990B0E94A617892B91F752
:100C20002197CC0DDD1D8881082E000C990B0E94A8
:100C3000A617892B29F0CE15DF0510F02197F3CFE9
:100C4000AE014F5F5F4F4E195F09D80115965C9357
:100C50004E931497CE14DF0420F4B701C6010E940E
:100C60000B1CD801ED91FC91119714968D919C91DC
:100C7000E80FF91F1082BBCFFB0144815581FC01B5
:100C8000248135812417350778F080819181009780
:100C900059F0FB01608171816115710529F00E9495
:100CA0002F1C21E0892B09F020E0822F0895FC0100
:100CB00024813581232B39F421E0FB0180818823B5
:100CC00049F020E007C0808191810E941F1C21E033
:100CD000892BB9F7822F0895CF93DF93EC01A88178
:100CE000B981EB01E881F9811097F1F03097B1F407
:100CF000EC018C819D81892BC9F08C9190E00BC017
:100D0000DB0114968D919C91892B81F0808190E07C
:100D1000919581959109DF91CF910895BF01CD0102
:100D2000DF91CF910C941F1C309751F790E080E039
:100D3000F2CF0F931F93CF93DF938C01EB01FC0154
:100D4000808191810097E1F0688179816115710559
:100D5000A9F0428153812C813D814217530770F0E5
:100D60000E94281C8C819D81F801958384831D82BB
:100D70001C82DF91CF911F910F9108950E94A11ABB
:100D800088819981F801918380838A819B819383F3
:100D900082838C819D8195838483198218821B8232
:100DA0001A82E5CFCF93DF93EC0188819981009778
:100DB00011F00E94A11A198218821D821C821B82C6
:100DC0001A82DF91CF910895FC0180819181009773
:100DD00011F00C94A11A08950F931F93CF93DF93F2
:100DE000EC0188819981009759F02A813B8126176F
:100DF000370730F081E0DF91CF911F910F91089577
:100E00008B016F5F7F4F0E942A1B009759F09983D7
:100E100088831B830A832C813D81232B59F7FC0196
:100E20001082E8CF80E0E7CFEF92FF920F931F93FD
:100E3000CF93DF936115710541F480E0DF91CF918D
:100E40001F910F91FF90EF90089541155105B1F05A
:100E50007B01EC010C811D81040F151FB8010E945C
:100E6000EC06882351F3288139818C819D81B7015B
:100E7000820F931F0E94281C1D830C8381E0DECF0C
:100E8000CF93DF93EC01FB0101900020E9F731974C
:100E9000AF01461B570B0E941407811103C0CE01FE
:100EA0000E94D206CE01DF91CF910895CF93DF93B8
:100EB000EC01FB0144815581608171810E9414071E
:100EC000811103C0CE010E94D206CE01DF91CF91E5
:100ED0000895EF92FF920F931F93CF93DF93EC014E
:100EE0007B018A01BA010E94EC0681110BC0CE0180
:100EF0000E94D206CE01DF91CF911F910F91FF90FA
:100F0000EF9008951D830C83B701888199810E9419
:100F1000281CF0CFFB0101900020E9F73197AF01C9
:100F2000461B570B0C946907CF93DF93EC016115B7
:100F3000710531F00E948A07CE01DF91CF910895AB
:100F40000E94D206F9CF0F931F93CF93DF93CDB7B3
:100F5000DEB762970FB6F894DEBF0FBECDBF8C012F
:100F6000CB01F80111821082138212821582148241
:100F70004AE0BE016F5F7F4F0E941B15BE016F5F8D
:100F80007F4FC8010E948A0762960FB6F894DEBFB1
:100F90000FBECDBFDF91CF911F910F910895CF93D9
:100FA000DF93EC01FB018617970749F0608171819F
:100FB0006115710541F0448155810E946907CE0198
:100FC000DF91CF9108950E94D206F9CFFC011182E2
:100FD000108213821282158214820C94CF07EF9232
:100FE000FF920F931F93CF93DF9300D000D0CDB724
:100FF000DEB77B018A01BC01695F7F4FCE0101969C
:101000000E94E6076DE172E0CE0101960E94400762
:10101000B7010E94560769EA73E00E944007B801D1
:101020000E9456070E94C105CE0101960E94E40667
:1010300026960FB6F894DEBF0FBECDBFDF91CF91DD
:101040001F910F91FF90EF900895FC011182108283
:101050001382128215821482FB0101900020E9F7AD
:101060003197AF01461B570B0C946907CF92DF9263
:10107000EF92FF920F931F93CF93DF93EC017B01CD
:101080008A018091DE03803340F591E0980F9093C0
:10109000DE03888390E0FC01EE0FFF1FE80FF91FCD
:1010A000ED51FC4F88EB9BE0928381836E0185E0DC
:1010B000C80ED11C6CE172E0C6010E942508FC82BA
:1010C000EB82B801C601DF91CF911F910F91FF9084
:1010D000EF90DF90CF900C94CF078FEF8883E6CF0F
:1010E000AF92BF92CF92DF92EF92FF920F931F9336
:1010F000CF93DF935C016B017A01DB0114960D91B4
:101100001C910417150720F48F2D7801042F182F38
:101110006CE172E0C5010E942508F601C481D58109
:10112000EC16FD06C8F40C171D0708F4E801D601FB
:10113000ED91FC911197EC0FFD1F108110826D91C4
:101140007C916E0D7F1DC5010E949407F601808180
:101150009181C80FD91F1883C501DF91CF911F91CD
:101160000F91FF90EF90DF90CF90BF90AF900895D8
:10117000FF920F931F93CF93DF93CDB7DEB72C97DA
:101180000FB6F894DEBF0FBECDBF8C01DC018C9191
:10119000803308F058C01396FC9061E08F2D0E94B8
:1011A000E002F8018081282F30E0F901EE0FFF1FE7
:1011B000E20FF31FED51FC4F2F2D2F739081907C88
:1011C000922B9083D80111961C92119712961C9223
:1011D0002CE0622F0E94F119829FB001112430E0AF
:1011E00020E0AB01420F531FFA01EE0FFF1FE40F87
:1011F000F51FED51FC4F908196FD17C02F5F3F4FBB
:101200002C30310571F7813009F050C01092800008
:1012100082E0809381001092850010928400B19A40
:1012200080916F00826080936F00D801EC918E2FC7
:1012300090E0FC01EE0FFF1FE80FF91FED51FC4F8E
:10124000808180648083F80163817481CE01079678
:101250000E94A30767E272E0CE0101960E94250872
:10126000B8016B5F7F4FCE0101960E9456076AE37B
:1012700072E00E944007BE01695F7F4F0E945607DF
:101280000E94C105CE0101960E94E406CE01079698
:101290000E94E4062C960FB6F894DEBF0FBECDBFB9
:1012A000DF91CF911F910F91FF900895823061F4EB
:1012B00010929000809391001092950010929400EB
:1012C00088BB80937100B1CF833069F41092A00085
:1012D00082E08093A1001092A5001092A40089BB27
:1012E00080937200A2CF8111A0CF1092200182E0E2
:1012F0008093210110922501109224018ABB8093D2
:10130000730093CF2F923F924F925F926F927F9292
:101310008F929F92AF92BF92CF92DF92EF92FF9205
:101320000F931F93CF93DF93CDB7DEB7A5970FB67B
:10133000F894DEBF0FBECDBF6C01362E272E142FC2
:101340005DA349012C0187E0480E511C6CE172E05D
:10135000C2010E9425083601EDE06E0E711C6CE1A1
:1013600072E0C3010E9425085601F7E1AF0EB11CDF
:101370006CE172E0C5010E942508F60130822182ED
:1013800012838DA18383B401C2010E94CF07F601AD
:101390000683E482F58263E472E0C3010E948A0757
:1013A000F601138A148A158A168A0681002309F425
:1013B0008CC0B701CE0149960E94A3076BE472E08E
:1013C000CE0143960E942508BE01675E7F4FCE0185
:1013D00043960E945607BC01CE014F960E94E60735
:1013E000612F7DA1CE010D960E94A307632D722D62
:1013F000CE0107960E94A3076EE472E0CE0101962B
:101400000E942508B401CE0101960E9456076BE5A3
:1014100072E00E944007BE01695F7F4F0E9456073D
:101420006AE672E00E944007BE01635F7F4F0E9440
:101430005607BE01615E7F4F0E945607BC01C50181
:101440000E94CF07CE0101960E94E406CE010796C6
:101450000E94E406CE010D960E94E406CE014F964E
:101460000E94E406002341F0CE0143960E94E40668
:10147000CE0149960E94E40661E0832D0E94E002BD
:1014800061E0812F0E94E002F6018681882321F02D
:1014900061E08E2D0E94E002A5960FB6F894DEBFA3
:1014A0000FBECDBFDF91CF911F910F91FF90EF90B5
:1014B000DF90CF90BF90AF909F908F907F906F9074
:1014C0005F904F903F902F9008956CE172E0CE01B5
:1014D0004F960E94250884CF4F925F926F927F9221
:1014E000AF92BF92CF92DF92EF92FF920F931F9332
:1014F000CF93DF93CDB7DEB7A7970FB6F894DEBFD3
:101500000FBECDBF7C016C018DE0C80ED11C6FE712
:1015100072E0C6010E945706F70196819923E9F10E
:10152000128161E0811134C067E872E0C6010E9457
:10153000570660E0882361F1812F0E94B20261E0CA
:10154000F70184810E94B20220E030E04FE753E4CB
:10155000F70163897489858996890E94251820E09E
:1015600030E048EC52E40E9449190E94BB192B015B
:101570005B01F7010081118161E0802F0E94E00290
:1015800041145104C1F460E0802F0E94B2023FC0B8
:10159000812F0E94B20260E0D3CF61E0811108C0C8
:1015A00067E872E0C6010E945706882369F260E08E
:1015B000F7018281C7CFFFEF4F16510411F461E0AC
:1015C000E3CFF801FF27ED56FC4FE491E150E23103
:1015D00008F0FFC0F0E08827EF50F54F8F4F0C94D4
:1015E000FD19030B570B5C0B660B700BE90B7A0BA9
:1015F000820B8A0B940B9E0BA80BB70BC10BE90B4C
:10160000CB0BD50BDF0B84B5806884BD47BCF701DD
:1016100063897489858996891BA21AA21DA21CA2BE
:101620001FA21EA28E010F5F1F4F22E044E00E9406
:10163000D614BC01CE0182960E949407B701695F5F
:101640007F4FC8010E94E60760E972E0C8010E946E
:101650004007B6010E9456076BEA72E00E944007FD
:10166000BE016E5D7F4F0E94560764EB72E00E94E0
:1016700040070E94C105C8010E94E406CE0182967F
:101680000E94E406A7960FB6F894DEBF0FBECDBF4A
:10169000DF91CF911F910F91FF90EF90DF90CF904E
:1016A000BF90AF907F906F905F904F90089584B5FA
:1016B000806284BD48BCABCF8091800080688093FD
:1016C00080005092890040928800A1CF80918000D4
:1016D00080628093800050928B0040928A0097CF66
:1016E0008091800088608093800050928D004092AD
:1016F0008C008DCF8091B00080688093B0004092C4
:10170000B30085CF8091B00080628093B00040929A
:10171000B4007DCF809190008068809390005092BB
:1017200099004092980073CF8091900080628093DE
:10173000900050929B0040929A0069CF8091900057
:1017400088608093900050929D0040929C005FCFF3
:101750008091A00080688093A0008091A0008F7B82
:101760008093A0005092A9004092A80050CF809191
:10177000A00080628093A0005092AB004092AA002B
:1017800046CF8091A00088608093A0005092AD0069
:101790004092AC003CCF8091200180688093200172
:1017A000509229014092280132CF8091200180621D
:1017B0008093200150922B0140922A0128CF8091E2
:1017C000200188608093200150922D0140922C01CD
:1017D0001ECF80E8A816B1040CF0F1CED4CE0F9342
:1017E0001F93CF93DF93CDB7DEB72C970FB6F89446
:1017F000DEBF0FBECDBF8C01FC01138A148A158A8F
:10180000168A63E472E00D960E948A0763E472E030
:10181000CE0107960E94250866EB72E0CE01019684
:101820000E942508AE01495F5F4FBE016F5F7F4F89
:10183000C8010E94EF07CE0101960E94E406CE0186
:1018400007960E94E406C8010E946C0A2C960FB607
:10185000F894DEBF0FBECDBFDF91CF911F910F91E6
:101860000895CF92DF92EF92FF920F931F93CF9341
:10187000DF93CDB7DEB72C970FB6F894DEBF0FBE5F
:10188000CDBF8C017B016C018DE0C80ED11CF8012D
:1018900021893289FB01848195812817390729F430
:1018A000C6010E946C06892B19F1B701C6010E947E
:1018B000CF07B701CE0107960E94E6076CEB72E0F6
:1018C000CE0101960E942508AE01495F5F4FBE011F
:1018D0006F5F7F4FC8010E94EF07CE0101960E9403
:1018E000E406CE0107960E94E406C8010E946C0A35
:1018F0002C960FB6F894DEBF0FBECDBFDF91CF910F
:101900001F910F91FF90EF90DF90CF9008958F92ED
:101910009F92AF92BF92EF92FF920F931F93CF933C
:10192000DF93CDB7DEB7E3970FB6F894DEBF0FBEF7
:10193000CDBF7C014A015B01AB019401FC016389CD
:101940007489858996890E94BF17882309F449C044
:10195000F701838A948AA58AB68A1BA21AA21DA2BD
:101960001CA21FA21EA28E010F5F1F4F22E044E0A7
:10197000C501B4010E94D614BC01CE0182960E941A
:101980009407BE016E5D7F4FCE0188960E94E607E8
:1019900064EB72E0CE0188960E944007BC01CE0144
:1019A0008E960E94E60766EC72E0C8010E94250848
:1019B000AE01425D5F4FB801C7010E94EF07C80149
:1019C0000E94E406CE018E960E94E406CE0188961F
:1019D0000E94E406CE0182960E94E406C7010E949E
:1019E0006C0AE3960FB6F894DEBF0FBECDBFDF9151
:1019F000CF911F910F91FF90EF90BF90AF909F906C
:101A00008F9008951F920F920FB60F9211242F936B
:101A10003F938F939F93AF93BF938091780490915E
:101A20007904A0917A04B0917B043091730423E08F
:101A3000230F2D3758F50196A11DB11D2093730476
:101A40008093780490937904A0937A04B0937B04F4
:101A50008091740490917504A0917604B0917704FC
:101A60000196A11DB11D8093740490937504A093F9
:101A70007604B0937704BF91AF919F918F913F917E
:101A80002F910F900FBE0F901F90189526E8230FEF
:101A90000296A11DB11DD2CF1F920F920FB60F92C9
:101AA00011240BB60F922F933F934F935F936F9335
:101AB0007F938F939F93AF93BF93EF93FF938CE7A5
:101AC00094E00E942804FF91EF91BF91AF919F9104
:101AD0008F917F916F915F914F913F912F910F90D7
:101AE0000BBE0F900FBE0F901F9018951F920F9274
:101AF0000FB60F9211240BB60F922F938F939F93D3
:101B0000EF93FF93E0918C04F0918D048081E0913C
:101B10009204F091930482FD1DC090818091950400
:101B20008F5F8F7320919604821741F0E0919504A6
:101B3000F0E0E458FB4F958F80939504FF91EF916F
:101B40009F918F912F910F900BBE0F900FBE0F9012
:101B50001F9018958081F2CF1F920F920FB60F92AF
:101B600011240BB60F922F933F934F935F936F9374
:101B70007F938F939F93AF93BF93EF93FF9348E22D
:101B800051E064E271E090E080E00E94E804FF919F
:101B9000EF91BF91AF919F918F917F916F915F91E5
:101BA0004F913F912F910F900BBE0F900FBE0F9052
:101BB0001F9018951F920F920FB60F9211240BB61B
:101BC0000F922F933F934F935F936F937F938F93D6
:101BD0009F93AF93BF93EF93FF9348EA50E064EA7B
:101BE00070E083E090E00E94E804FF91EF91BF91E4
:101BF000AF919F918F917F916F915F914F913F91A5
:101C00002F910F900BBE0F900FBE0F901F90189545
:101C10001F920F920FB60F9211240BB60F922F93B3
:101C20003F934F935F936F937F938F939F93AF9364
:101C3000BF93EF93FF9348E950E064E970E082E0DE
:101C400090E00E94E804FF91EF91BF91AF919F91C6
:101C50008F917F916F915F914F913F912F910F9055
:101C60000BBE0F900FBE0F901F9018951F920F92F2
:101C70000FB60F9211240BB60F922F933F934F93F1
:101C80005F936F937F938F939F93AF93BF93EF93E4
:101C9000FF9348E850E064E870E081E090E00E9443
:101CA000E804FF91EF91BF91AF919F918F917F9148
:101CB0006F915F914F913F912F910F900BBE0F90BD
:101CC0000FBE0F901F901895EF92FF920F931F93E6
:101CD000CF93DF9300D000D0CDB7DEB7ECE7F4E0D0
:101CE0001382128288EE93E0A0E0B0E084839583B3
:101CF000A683B7838CE092E09183808385EC90E0AB
:101D00009587848784EC90E09787868780EC90E0C5
:101D1000918B808B81EC90E0938B828B82EC90E0B6
:101D2000958B848B86EC90E0978B868B118E128E30
:101D3000138E148E6CEC72E0CE0101960E94250881
:101D4000EE24EA94FE2C00E09E012F5F3F4F43E01B
:101D500050E062E070E085E795E00E948209CE01E4
:101D600001960E94E40664ED72E0CE0101960E94A5
:101D7000250896E0E92EF12C01E09E012F5F3F4FF0
:101D800045E050E064E070E088E595E00E9482095B
:101D9000CE0101960E94E40605E415E087E090E09C
:101DA000F8019183808386E090E09383828385E0CD
:101DB00090E0958384831782168285E795E0968765
:101DC0008587908B878788E595E0928B818B60E093
:101DD00087E00E94E00260E086E00E94E00262E0AC
:101DE00085E00E94E00287E00E948902F801918765
:101DF000808762E088E00E94E0026CE172E08FE39D
:101E000095E00E9425086CED72E08FE395E00E945A
:101E10008A076FEE72E0CE0101960E942508AE019E
:101E20004F5F5F4F69E070E084E395E00E94360801
:101E3000CE0101960E94E40666EF72E0CE010196A3
:101E40000E942508AE014F5F5F4F6AE070E089E2B3
:101E500095E00E943608CE0101960E94E4066FEEDE
:101E600072E089E195E00E94250809E115E084E32C
:101E700095E0F8019783868366EF72E081E295E052
:101E80000E94250889E295E0F801978786872696C3
:101E90000FB6F894DEBF0FBECDBFDF91CF911F917B
:101EA0000F91FF90EF900895CF93DF93CDB7DEB7FA
:101EB000E0970FB6F894DEBF0FBECDBF789484B51F
:101EC000826084BD84B5816084BD85B5826085BD36
:101ED00085B5816085BD80916E00816080936E00C4
:101EE00010928100809181008260809381008091B6
:101EF0008100816080938100809180008160809367
:101F000080008091B10084608093B1008091B00026
:101F100081608093B00080919100826080939100F5
:101F20008091910081608093910080919000816008
:101F3000809390008091A10082608093A1008091A5
:101F4000A10081608093A1008091A00081608093B6
:101F5000A000809121018260809321018091210164
:101F60008160809321018091200181608093200114
:101F700080917A00846080937A0080917A008260F8
:101F800080937A0080917A00816080937A008091BA
:101F90007A00806880937A001092C100E0918C04EE
:101FA000F0918D0402E00083E0918804F0918904AF
:101FB0001082E0918A04F0918B0480E1808310927A
:101FC0009404E0919004F091910416E01083E09164
:101FD0008E04F0918F04808180618083E0918E0473
:101FE000F0918F04808188608083E0918E04F0916D
:101FF0008F04808180688083E0918E04F0918F044B
:1020000080818F7D80838CE895E00E94C1058FE6FA
:1020100095E00E94C1058DEF92E00E94AA05E09133
:102020008C04F0918D040083E0918804F091890480
:102030001082E0918A04F0918B048FEC80831092DF
:102040009404E0919004F09191041083E0918E0447
:10205000F0918F04808180618083E0918E04F09103
:102060008F04808188608083E0918E04F0918F04DA
:10207000808180688083E0918E04F0918F0480815C
:102080008F7D80838FE395E00E94C10584E395E016
:102090000E94B80889E295E00E94B8080AE812E0B8
:1020A000F8016491662341F08CE794E00E944A04B1
:1020B0000F5F1F4F892BA1F70E94A205B5E72B2EBA
:1020C000B5E03B2E14EB412E512C612C712C6CE1B0
:1020D00072E0CE0143960E9425086CE172E0CE01C9
:1020E00049960E9425086CE172E0CE014F960E944D
:1020F00025088CE794E00E941204892BB1F16CE171
:1021000072E0CE0185960E9425080E94C40397FDC7
:102110000FC08A30910561F089831A8241E050E056
:10212000BE016F5F7F4FCE0185960E941407EDCFF1
:10213000CE0185960E94DF0568E173E0CE018596A9
:102140000E945706882309F4F8C16AE173E0CE01C2
:1021500043960E948A0760E273E0CE0149960E948E
:102160008A07CE0185960E94E4066AE173E0CE01FB
:1021700043960E945706882389F060E273E0CE01FF
:1021800049960E945706882309F4EEC285E795E038
:102190000E94EF0B88E595E00E94EF0B66E373E089
:1021A000CE0143960E945706882309F4D4C0BE018D
:1021B000675E7F4FCE018B960E94E607CE014F9659
:1021C0000E94D4056B010FA518A980911D0590915F
:1021D0001E058017910749F4BE01655D7F4F89E1B7
:1021E00095E00E946C060097A1F0809125059091E2
:1021F00026058017910709F04FC3BE01655D7F4F2B
:1022000081E295E00E946C06892B09F045C381E0CC
:1022100090E0F3E0880F991FFA95E1F7FC01E75E83
:10222000FA4F06811781960180E2C81682E0D8062F
:10223000BCF5F801818128E830E0281B310987FDD1
:102240003395220F331F220F331F4901330FAA0882
:10225000BB08828128E532E0281B310987FD3395D0
:10226000220F331F220F331F032E000C440B550B7C
:10227000281939094A095B09D601A53BB10514F0B3
:10228000A4EBB0E0B7FF02C0B0E0A0E00E941019DC
:10229000A30192010E94E618280D391D4A1D5B1DFD
:1022A000F8014081403370F5818168E870E0681B77
:1022B000710987FD7395CB01880F991F880F991FAE
:1022C000281739077CF0528188E592E0851B910937
:1022D00057FD9395880F991F880F991F2817390765
:1022E0000CF4C9010297880F991F2FB7F89450E09A
:1022F000FA01EE0FFF1FE40FF51FED51FC4F928323
:1023000081832FBFB601CE0101960E94A3076EEA1A
:1023100073E0CE0185960E942508B8016B5F7F4F60
:10232000CE0185960E94560769EB73E00E94400734
:10233000BE016F5F7F4F0E9456070E94C105CE010C
:1023400085960E94E406CE0101960E94E406CE0125
:102350008B960E94E4066CE172E0CE0101960E9429
:1023600025086CE172E0CE0107960E9425086CE119
:1023700072E0CE010D960E942508809145050E94CD
:1023800089029093500580934F0520914D0530911F
:102390004E0582179307C9F1809147050E94890273
:1023A00040914F055091500520914B0530914C05BF
:1023B0008417950709F488C22F5F3F4F30934C056F
:1023C00020934B0581E08093510500914B051091BE
:1023D0004C056AE173E0CE0101960E948A0766EC23
:1023E00072E0CE0107960E948A07B801CE01859659
:1023F0000E94A307BE016B5D7F4FCE010D960E9428
:102400009906CE0185960E94E40680914F05909131
:10241000500590934E0580934D05809149050E948B
:102420008902892B29F580915405909155052091B9
:102430005205309153052817390721F4809156052C
:102440009091570590935305809352056AE173E08C
:10245000CE0101960E948A0766ED73E0CE010796D1
:102460000E948A0764EF71E080E090E00E944103DF
:102470006AE173E0CE0101960E9457068823E1F1DC
:1024800066EC72E0CE0107960E945706882309F495
:1024900024C2CE010D960E94D4056B01009100026A
:1024A000109101026FE772E01C141D0414F067E83C
:1024B00072E0CE0185960E942508BE016B5D7F4FBC
:1024C000C8010E94310CCE0185960E94E406B60137
:1024D000D7FE04C0662777276C197D09072E000CEC
:1024E000880B990B0E94C617AB01BC0180910002BA
:1024F000909101020E94870C61E070E080E090E022
:102500000E944103CE010D960E94E406CE0107967B
:102510000E94E406CE0101960E94E406CE014F9689
:102520000E94E406CE0149960E94E406CE0143963D
:102530000E94E4060E94B704CACD65E273E0CE01B2
:1025400085960E945706882389F06AE173E0CE01E0
:1025500043960E948A076CEB72E0CE0149960E9476
:102560008A076FE772E0CE014F96F9CD67E273E01C
:10257000CE0185960E945706882379F06AE173E0C0
:10258000CE0143960E948A076CEB72E0CE01499619
:102590000E948A0767E872E0E6CF69E273E0CE0145
:1025A00001960E942508BE016F5F7F4FCE01859680
:1025B0000E943C06182FCE0101960E94E4061123CA
:1025C00051F16AE173E0CE0143960E948A0769E205
:1025D00073E0CE0149960E948A0789A59AA50D97B6
:1025E00008F4BFCD4CE050E0BE016B5D7F4FCE01E3
:1025F00001960E947008CE0101960E94DF05BE017F
:102600006F5F7F4FCE014F960E94CF07CE0101969C
:102610000E94E406A6CD63E372E0CE0101960E941B
:102620002508BE016F5F7F4FCE0185960E943C0654
:10263000182FCE0101960E94E406112309F475C0FB
:10264000E9A4FAA4E114F10461F0CDA0DEA060E2F7
:1026500070E0C6010E94141C8C010C191D09892B05
:1026600011F40FEF1FEF0F5F1F4F0E151F0570F4D2
:10267000CDA0DEA060E270E0C601800F911F0E9435
:10268000141C7C01EC18FD08892B19F4EE24EA9443
:10269000FE2C66E373E0CE0143960E948A07570141
:1026A000E016F10610F0580187016CE172E0CE01EE
:1026B00001960E942508C9A4DAA4AC14BD04C0F494
:1026C0000C151D0508F46801EDA1FEA1EC0DFD1D22
:1026D000108110826DA17EA16A0D7B1DCE01019635
:1026E0000E9494078DA19EA1C80ED91EF6011083E9
:1026F000BE016F5F7F4FCE0149960E949906CE01C1
:1027000001960E94E406A7014F5F5F4FBE016B5D1B
:102710007F4FCE0101960E947008BE016F5F7F4F10
:10272000CE014F960E94990671CFCE0185960E94E8
:10273000D4056B016536710590F46AE173E0CE0152
:1027400043960E948A0766EC72E0CE0149960E9489
:102750008A07B601CE0101960E94A307DECF8CE363
:1027600093E00E94AA05FDCC6CEB72E0CE01499685
:102770000E945706882329F1BE01615E7F4FCE017A
:1027800001960E94E607BE016F5F7F4F85E795E0E7
:102790000E94310CCE0101960E94E406BE01615EEA
:1027A0007F4FCE0101960E94E607BE016F5F7F4F0B
:1027B00088E595E00E94310CCE0101960E94E40666
:1027C000EDCC66EC72E0CE0149960E945706882354
:1027D000C9F0CE014F960E94D405072E000C880B3D
:1027E000990B0E94C6176B017C01BC01A60185E70D
:1027F00095E00E94870CB701A60188E595E00E944C
:10280000870CCCCC69E273E0CE0149960E94570652
:10281000882309F4C3CC6CEC72E0CE014F960E9481
:102820005706882311F13092010220920002609134
:10283000000270910102695F7F4FCE0101960E94F4
:10284000E6076FE873E0CE0185960E942508BE0179
:102850006F5F7F4FCE0185960E9456070E94C1058B
:10286000CE0185960E94E406A7CF64ED72E0CE010A
:102870004F960E945706882339F068E575E07093FB
:10288000010260930002D3CF809100029091010277
:102890008557954041F6F1CF64EC73E0CE01019687
:1028A0000E942508BE01655D7F4FCE0101960E9402
:1028B00056076BEC73E00E9440070E94C105CE01F1
:1028C00001960E94E40643CD109251052150310932
:1028D00030934C0520934B0578CD66ED73E0CE0127
:1028E00007960E945706882309F406CE80910002BD
:1028F000909101028557954041F588E595E09093C8
:102900000102809300026091000270910102695FF0
:102910007F4FCE0185960E94E6076FE873E0CE01F7
:102920008B960E942508BE016B5D7F4FCE018B9672
:102930000E9456070E94C105CE018B960E94E406B4
:10294000CE0185960E94E406D7CD309201022092F6
:102950000002D9CF81E295E00E94E40689E195E08A
:102960000E94E4068EE295E00E94E40689E395E089
:102970000E94E4068FE395E00E94E4068FE695E06E
:102980000E94E40685E695E00E94E4068FE595E066
:102990000E94E4068CE895E00E94E40682E895E057
:1029A0000E94E4068CE795E00C94E406EF920F9306
:1029B0001F93CF93DF93E80134E047FD34E1042E09
:1029C000000C550B57FF03C0519541955109E32E5B
:1029D000022F242FAE010E945515CE01DF91CF9119
:1029E0001F910F91EF9008951F93FC01992788275D
:1029F000BC01E89411911032E9F3193010F01E3047
:102A0000C8F31B3251F01D3249F4689406C00E948D
:102A10002615610F711D811D911D119110531A30E2
:102A2000B0F33EF490958095709561957F4F8F4FF0
:102A30009F4F1F910895BB274A3031F4992322F408
:102A4000BDE2909581959F4F0C943C15592F482FCE
:102A5000372F262F660F771F881F991F660F771F46
:102A6000881F991F620F731F841F951F660F771FA2
:102A7000881F991F0895BB27FB015527AA27880F98
:102A8000991FAA1FA41710F0A41B83955051B9F7E2
:102A9000A05DAA3308F0A95DA193009779F7B11161
:102AA000B1931192CB010C94AF178F929F92AF927A
:102AB000BF92CF92DF92EF92FF920F931F93CF932B
:102AC000DF9300D000D000D0CDB7DEB76A01F22E80
:102AD000B02E102FFBE3AF2EA01608F41BE31F5FF0
:102AE000012F27E0AE014F5F5F4F0E94CE16BC0161
:102AF0008981982F9970913009F44EC09BE2E1FCD6
:102B000004C09E2D9170E0FC49C05E2D5071E82FED
:102B1000E87083FF55C084E0911101C083E0EF2D80
:102B2000E81B8F1508F0E0E0D6018E2F20E2552338
:102B3000C9F1992329F0D6019C93C60101966C0135
:102B400096012D5F3F4FE2FE33C08EE4D6018C9399
:102B500091E411969C93119712968C93D9018E2F24
:102B600090E281112AC0E20FF32FF11D10828EEF47
:102B70009FEF29960FB6F894DEBF0FBECDBFDF9151
:102B8000CF911F910F91FF90EF90DF90CF90BF906A
:102B9000AF909F908F9008959DE2B7CF90E2B5CF10
:102BA0002D9381508111FCCFCE0ED11CE0E0C1CF1E
:102BB0008EE6D6018C9391E6CCCF9D938150D1CFF8
:102BC000482F447082FF3DC084E0911101C083E032
:102BD0008F1510F4EF2DE81BD6018E2F20E2552320
:102BE00009F1992329F0D6019C93C60101966C0145
:102BF00096012D5F3F4FE2FE1BC089E4D6018C9306
:102C00008EE411968C93119786E412968C93D901D9
:102C10008E2F90E2882309F4A6CF9D938150FACF9E
:102C20002D9381508111FCCFCE0ED11CE0E0D9CF85
:102C300089E6D6018C938EE611968C93119786E6E1
:102C4000E4CF9B0177FF02C030E020E0A1E0B0E0DC
:102C5000911102C0B0E0A0E0F9013196AE0FBF1FA4
:102C60008B2C912CBB2009F461C05401EFEFAE1AFC
:102C7000BE0AAA0DBB1DFA161B0619F014F04F2D43
:102C80004A1B511188C0E3FC59C07601A42FB0E261
:102C9000A1114FC0C40ED11C992309F45BC040E0C0
:102CA000D6011196F60190836D01552309F448C0B1
:102CB000012F060F9A81582F507184FF03C0913362
:102CC00009F4015010160CF047C0093008F008E074
:102CD000EEE2FE2E5B01A01AB10885019194819469
:102CE00091082F3F320729F4D601FC92F601319664
:102CF0006F016217730794F1021713077CF5DB016C
:102D0000A21BB30BAA24A394B12CAC0EBD1EAA0D1A
:102D1000BB1D11968C9121503109D60111962815B1
:102D20003905F4F0F60180836D01DBCFB12CA12CC5
:102D3000A0CFF701B1937F01A150AACF9111B0CFDD
:102D4000D601942F50E302C05D9391509111FCCFB6
:102D5000C40ED11C40E0ACCF01E0BACF80E3DBCFA2
:102D60006217730731F4963388F4953311F45523C1
:102D700069F0F6018083FD01842F90E2811108C083
:102D8000A40FB11D1C9290E080E0F3CE81E3F1CF5F
:102D900091938150F3CF911183CF8ACF283008F0DF
:102DA00027E03327DA01990F311D87FD91600096E6
:102DB0006105710539F432602E5F3D9330E32A9549
:102DC000E1F708959F3F30F080387105610509F003
:102DD0003C5F3C5F3D93913008F08068911DDF932C
:102DE000CF931F930F93FF92EF92192F987F969591
:102DF000E92F96959695E90FFF27E651FE4F992703
:102E00003327EE24FF24A701E701059008940794D7
:102E100028F4360FE71EF81E491F511D660F771F55
:102E2000881F991F0694A1F70590079428F4E70ED0
:102E3000F81E491F561FC11D770F881F991F661F57
:102E40000694A1F70590079428F4F80E491F561F21
:102E5000C71FD11D880F991F661F771F0694A1F702
:102E60000590079420F4490F561FC71FD81F990FCC
:102E7000661F771F881F0694A9F784911095177015
:102E800041F0D695C79557954795F794E7941A95CD
:102E9000C1F7E0E9F1E068941590159135916591DD
:102EA000959105907FE27395E118F10A430B560B5B
:102EB000C90BD009C0F7E10CF11E431F561FC91FF3
:102EC000D01D7EF4703311F48A95E6CFE89401505A
:102ED00030F0080F0AF40027021708F4202F23957A
:102EE000022F7A3328F079E37D932A95E9F710C011
:102EF0007D932A9589F6069497956795379517954A
:102F00001794E118F10A430B560BC90BD00998F03E
:102F100023957E9173957A3308F070E37C932013A8
:102F2000B8F77E9170617D9330F0839571E37D9366
:102F300070E32A95E1F71124EF90FF900F911F9114
:102F4000CF91DF91992787FD9095089591110C9469
:102F50009218803219F089508550C8F70895DC0125
:102F6000FC01672F71917723E1F7329704C07C91C0
:102F70006D9370836291AE17BF07C8F308950E94E6
:102F8000011808F481E00895E89409C097FB3EF425
:102F900090958095709561957F4F8F4F9F4F9923A6
:102FA000A9F0F92F96E9BB279395F6958795779524
:102FB0006795B795F111F8CFFAF4BB0F11F460FFE4
:102FC0001BC06F5F7F4F8F4F9F4F16C0882311F03C
:102FD00096E911C0772321F09EE8872F762F05C050
:102FE000662371F096E8862F70E060E02AF09A95EB
:102FF000660F771F881FDAF7880F9695879597F9E0
:103000000895990F0008550FAA0BE0E8FEEF161679
:103010001706E807F907C0F012161306E407F507CC
:1030200098F0621B730B840B950B39F40A2661F040
:10303000232B242B252B21F408950A2609F4A140E3
:10304000A6958FEF811D811D08950E9438180C945C
:10305000AC180E949E1838F00E94A51820F0952305
:1030600011F00C9495180C949B1811240C94E018F2
:103070000E94BD1870F3959FC1F3950F50E0551F46
:10308000629FF001729FBB27F00DB11D639FAA27BD
:10309000F00DB11DAA1F649F6627B00DA11D661F0C
:1030A000829F2227B00DA11D621F739FB00DA11D2D
:1030B000621F839FA00D611D221F749F3327A00DE7
:1030C000611D231F849F600D211D822F762F6A2F83
:1030D00011249F5750409AF0F1F088234AF0EE0FE8
:1030E000FF1FBB1F661F771F881F91505040A9F715
:1030F0009E3F510580F00C9495180C94E0185F3FAA
:10310000E4F3983ED4F3869577956795B795F79550
:10311000E7959F5FC1F7FE2B880F911D96958795C8
:1031200097F9089599278827089597F99F6780E868
:1031300070E060E008959FEF80EC089500240A9409
:103140001616170618060906089500240A94121682
:103150001306140605060895092E0394000C11F4B5
:10316000882352F0BB0F40F4BF2B11F460FF04C062
:103170006F5F7F4F8F4F9F4F089557FD9058440FBB
:10318000551F59F05F3F71F04795880F97FB991FC6
:1031900061F09F3F79F08795089512161306140683
:1031A000551FF2CF4695F1DF08C016161706180610
:1031B000991FF1CF86957105610508940895E894EB
:1031C000BB2766277727CB0197F90895052E97FB34
:1031D0001EF400940E94FD1857FD07D00E94181994
:1031E00007FC03D04EF40C94FD1850954095309593
:1031F00021953F4F4F4F5F4F089590958095709563
:1032000061957F4F8F4F9F4F08950E943A19A59F58
:10321000900DB49F900DA49F800D911D11240895D1
:10322000B7FF0C9405190E940519821B930B089592
:10323000A1E21A2EAA1BBB1BFD010DC0AA1FBB1FBA
:10324000EE1FFF1FA217B307E407F50720F0A21B2C
:10325000B30BE40BF50B661F771F881F991F1A9499
:1032600069F760957095809590959B01AC01BD01C3
:10327000CF010895A29FB001B39FC001A39F700D1D
:10328000811D1124911DB29F700D811D1124911D6E
:1032900008950E945D190C94AC180E94A51858F06E
:1032A0000E949E1840F029F45F3F29F00C94951875
:1032B00051110C94E0180C949B180E94BD1868F3EF
:1032C0009923B1F3552391F3951B550BBB27AA27DF
:1032D00062177307840738F09F5F5F4F220F331F19
:1032E000441FAA1FA9F335D00E2E3AF0E0E832D0E1
:1032F00091505040E695001CCAF72BD0FE2F29D0E4
:10330000660F771F881FBB1F261737074807AB07B5
:10331000B0E809F0BB0B802DBF01FF2793585F4F2A
:103320003AF09E3F510578F00C9495180C94E018F3
:103330005F3FE4F3983ED4F3869577956795B7950C
:10334000F7959F5FC9F7880F911D9695879597F917
:103350000895E1E0660F771F881FBB1F6217730790
:103360008407BA0720F0621B730B840BBA0BEE1FA5
:1033700088F7E09508950E94C2196894B1110C94E1
:10338000E01808950E94C51888F09F5798F0B92F4B
:103390009927B751B0F0E1F0660F771F881F991F8A
:1033A0001AF0BA95C9F714C0B13091F00E94DF1835
:1033B000B1E008950C94DF18672F782F8827B85F45
:1033C00039F0B93FCCF3869577956795B395D9F7E2
:1033D0003EF490958095709561957F4F8F4F9F4FEC
:1033E0000895991B79E004C0991F961708F0961B61
:1033F000881F7A95C9F780950895EE0FFF1F881FE3
:103400008BBF0790F691E02D19940F931F93CF93E4
:10341000DF938230910510F482E090E0E091940512
:10342000F091950530E020E0B0E0A0E0309799F40D
:103430002115310509F44AC0281B390B2430310508
:10344000D8F58A819B816115710589F1FB01938310
:103450008283FE0111C0408151810281138148178E
:103460005907E0F04817590799F4109761F0129640
:103470000C93129713961C933296CF01DF91CF9144
:103480001F910F9108950093940510939505F4CF23
:103490002115310551F04217530738F0A901DB011E
:1034A0009A01BD01DF01F801C1CFEF01F9CF90937F
:1034B000950580939405CDCFFE01E20FF31F819314
:1034C00091932250310939832883D7CF20919205D7
:1034D00030919305232B41F4209104023091050291
:1034E00030939305209392052091020230910302BC
:1034F0002115310541F42DB73EB740910602509198
:103500000702241B350BE0919205F0919305E21719
:10351000F307A0F42E1B3F0B2817390778F0AC01F6
:103520004E5F5F4F2417350748F04E0F5F1F5093D3
:10353000930540939205819391939FCFF0E0E0E053
:103540009CCFCF93DF930097E9F0FC013297138271
:103550001282A0919405B0919505ED0130E020E034
:103560001097A1F420813181820F931F2091920541
:10357000309193052817390709F061C0F09393053E
:10358000E0939205DF91CF910895EA01CE17DF070E
:10359000E8F54A815B819E0141155105B1F7E901CA
:1035A000FB83EA8349915991C40FD51FEC17FD079E
:1035B00061F4808191810296840F951FE9019983BE
:1035C0008883828193819B838A83F0E0E0E0129676
:1035D0008D919C9113970097B9F52D913C9111977E
:1035E000CD010296820F931F209192053091930591
:1035F0002817390739F6309751F510929505109232
:103600009405B0939305A0939205BCCFD383C28356
:1036100040815181840F951FC817D90761F44E5F0F
:103620005F4F88819981480F591F518340838A8158
:103630009B81938382832115310509F0B0CFF093EC
:103640009505E09394059ECFFD01DC01C0CF138268
:103650001282D7CF4F925F926F927F928F929F92FA
:10366000AF92BF92CF92DF92EF92FF920F931F9390
:10367000CF93DF938C01009799F4CB01DF91CF9129
:103680001F910F91FF90EF90DF90CF90BF90AF9080
:103690009F908F907F906F905F904F900C94051A41
:1036A000FC01E60FF71F9C0122503109E217F307D6
:1036B00008F4AEC0D901CD91DC911197C617D70798
:1036C00020F1C530D10578F0CE0104978617970711
:1036D00050F0C61BD70B2297C193D1936D937C9367
:1036E000CF010E94A11AC801DF91CF911F910F91C4
:1036F000FF90EF90DF90CF90BF90AF909F908F9012
:103700007F906F905F904F9008955B01AC1ABD0A57
:103710004C018C0E9D1EA0919405B0919505512CE5
:10372000412CF12CE12C109731F58091920590916C
:1037300093058815990509F05CC04616570608F0F0
:1037400058C08091020290910302009741F48DB716
:103750009EB74091060250910702841B950BE81713
:10376000F90708F055C0F0939305E0939205F9012D
:1037700071836083B8CF8D919C91119712966C9054
:10378000129713967C901397A815B90559F56C01FB
:1037900042E0C40ED11CCA14DB0420F1AC014A196A
:1037A0005B09DA011296159780F062827382518369
:1037B0004083D9016D937C93E114F10471F0D7013A
:1037C0001396FC93EE9312978ECF22968C0F9D1F2B
:1037D000F90191838083F301EFCFF0939505E09396
:1037E000940581CF4816590608F42C017D01D301B8
:1037F0009ACFCB010E94051A7C01009749F0AE01D7
:10380000B8010E940B1CC8010E94A11A87016BCF4E
:1038100010E000E068CFFB01DC0102C001900D92D6
:1038200041505040D8F70895FC018191861721F04E
:103830008823D9F7992708953197CF010895FB017F
:10384000DC018D91019080190110D9F3990B089535
:10385000FB01DC0101900D920020E1F70895FB01CE
:10386000DC014150504030F08D910190801919F4E5
:103870000020B9F7881B990B089511E0CEEED1E036
:1038800000E006C0802FFE010E94FD192196011D57
:10389000CF3ED10780E00807A9F7F894FFCF750560
:1038A000000096058000000000004A047403A10394
:1038B00097041204B00304040D0A00206368616ECB
:1038C0006765642000496E697469616C697A656432
:1038D00020736572766F2000206F6E2070696E20F5
:1038E0000073746F70706564002C2000496E6974F9
:1038F00069616C697A65642000207769746820507A
:10390000574D2070696E20002C20446972656374E5
:10391000696F6E2070696E2873293A2000666F7295
:1039200077617264006261636B7761726400206327
:10393000757272656E742073746174653A2064697F
:1039400072656374696F6E3D002C207370656564E9
:103950003D00250073746174650064697265637469
:10396000696F6E00737065656400547261636B20EB
:103970004100547261636B204200496E6974696151
:103980006C697A65642073657269616C0053657255
:10399000766F3100536572766F3200526F746172C8
:1039A0007920456E636F64657220696E6974696120
:1039B0006C697A65640073006D6F746F7200737464
:1039C0006F7000660062006368616E6765207472E4
:1039D00061636B00736572766F00496E76616C6926
:1039E0006420696E7075742E20456E746572202790
:1039F00073272C202766272C202762272C2027635B
:103A000068616E676520747261636B205B747261BC
:103A1000636B206E616D655D27206F722061206E83
:103A2000756D62657220302D3130302E005377690C
:103A3000746368656420616374697665207472617B
:103A4000636B206C696E6520746F20005365742071
:103A5000736572766F200020746F20616E676C65ED
:103A60002000536572766F2000206E6F7420666FA1
:0C3A7000756E6400737769746368000071
:020000040003F7
:10E000000D9489F10D94B2F10D94B2F10D94B2F129
:10E010000D94B2F10D94B2F10D94B2F10D94B2F1F0
:10E020000D94B2F10D94B2F10D94B2F10D94B2F1E0
:10E030000D94B2F10D94B2F10D94B2F10D94B2F1D0
:10E040000D94B2F10D94B2F10D94B2F10D94B2F1C0
:10E050000D94B2F10D94B2F10D94B2F10D94B2F1B0
:10E060000D94B2F10D94B2F10D94B2F10D94B2F1A0
:10E070000D94B2F10D94B2F10D94B2F10D94B2F190
:10E080000D94B2F10D94B2F10D94B2F10D94B2F180
:10E090000D94B2F10D94B2F10D94B2F10D94B2F170
:10E0A0000D94B2F10D94B2F10D94B2F10D94B2F160
:10E0B0000D94B2F10D94B2F10D94B2F10D94B2F150
:10E0C0000D94B2F10D94B2F10D94B2F10D94B2F140
:10E0D0000D94B2F10D94B2F10D94B2F10D94B2F130
:10E0E0000D94B2F141546D656761323536300041AF
:10E0F000726475696E6F206578706C6F72657220DE
:10E1000073746B3530305632206279204D4C530099
:10E11000426F6F746C6F616465723E004875683F52
:10E1200000436F6D70696C6564206F6E203D200048
:10E130004350552054797065202020203D20005FF9
:10E140005F4156525F415243485F5F3D2000415658
:10E1500052204C696243205665723D20004743437C
:10E160002056657273696F6E203D20004350552024
:10E1700049442020202020203D20004C6F7720663D
:10E18000757365202020203D20004869676820665F
:10E190007573652020203D200045787420667573D6
:10E1A00065202020203D20004C6F636B2066757336
:10E1B000652020203D20004D617220203720323024
:10E1C000313300312E362E3800342E332E350056A2
:10E1D00023202020414444522020206F7020636F70
:10E1E00064652020202020696E73747275637469E1
:10E1F0006F6E2061646472202020496E74657272B3
:10E20000757074006E6F20766563746F7200726A49
:10E210006D702020006A6D70200057686174207056
:10E220006F72743A00506F7274206E6F7420737541
:10E2300070706F72746564004D7573742062652030
:10E2400061206C6574746572002000577269747483
:10E25000696E672045450052656164696E672045B7
:10E26000450045452065727220636E743D00504F35
:10E27000525400303D5A65726F2061646472003FF1
:10E280003D43505520737461747300403D454550C3
:10E29000524F4D207465737400423D426C696E6B41
:10E2A000204C454400453D44756D70204545505215
:10E2B0004F4D00463D44756D7020464C415348001B
:10E2C000483D48656C70004C3D4C69737420492F83
:10E2D0004F20506F72747300513D51756974005234
:10E2E0003D44756D702052414D00563D73686F7707
:10E2F00020696E7465727275707420566563746FF0
:10E30000727300593D506F727420626C696E6B00BD
:10E310002A0011241FBECFEFD1E2DEBFCDBF01E046
:10E320000CBF12E0A0E0B2E0EEE1FDEF03E00BBFB6
:10E3300002C007900D92A030B107D9F712E0A0E01B
:10E34000B2E001C01D92AE30B107E1F70F9460F367
:10E350000D948DFE01E20EBF0FEF0DBF11241FBE05
:10E360000D9460F30D9400F020E030E040ED57E0B4
:10E3700005C0FA013197F1F72F5F3F4F2817390792
:10E38000C0F308959C01260F311DC901A0E0B0E043
:10E390002F5F3F4FABBFFC018791882361F08093D3
:10E3A000C6008091C00086FFFCCF8091C0008064D1
:10E3B0008093C000EACF08958DE08093C6008091DD
:10E3C000C00086FFFCCF8091C00080648093C000B5
:10E3D0008AE08093C6008091C00086FFFCCF8091C8
:10E3E000C00080648093C00008950F94C2F10F9420
:10E3F000DCF10895FC019081992359F09093C600B7
:10E400008091C00086FFFCCF8091C0008064809323
:10E41000C0003196992379F70895282F982F929567
:10E420009F70892F805D8A3308F0895F8093C600D2
:10E430008091C00086FFFCCF8091C00080648093F3
:10E44000C000822F8F70982F905D9A3308F0995FEB
:10E450009093C6008091C00086FFFCCF8091C000E1
:10E4600080648093C00008959C01FB01853691056E
:10E470001CF46330710594F0C90164E670E00F94F8
:10E480002EFE605D7F4F6093C6008091C00086FFC6
:10E49000FCCF8091C00080648093C0002B30310598
:10E4A00014F43297B4F0C90164E670E00F942EFEC4
:10E4B0006AE070E00F942EFE605D7F4F6093C600AF
:10E4C0008091C00086FFFCCF8091C0008064809363
:10E4D000C000C9016AE070E00F942EFEC0968093E0
:10E4E000C6008091C00086FFFCCF8091C000806490
:10E4F0008093C00008951F93182F8EE692EE60E07F
:10E500000F94C2F11093C6008091C00086FFFCCF2B
:10E510008091C00080648093C0000F94DCF11F9153
:10E5200008952F923F924F925F926F927F928F92B7
:10E530009F92AF92BF92CF92DF92EF92FF920F9392
:10E540001F93DF93CF93CDB7DEB762970FB6F894E2
:10E55000DEBF0FBECDBF382E622ECA01DB015C01CB
:10E560006D01772420E2222E2E010894411C511CBB
:10E570008BC081E0A81680E0B80681E0C80680E084
:10E58000D80628F0C601AA27BB270F940DF2BB2797
:10E59000AD2D9C2D8B2D0F940DF28A2D0F940DF225
:10E5A0002092C6008091C00086FFFCCF8091C00001
:10E5B00080648093C0009DE29093C6008091C0006B
:10E5C00086FFFCCF8091C00080648093C0002092C1
:10E5D000C6008091C00086FFFCCF8091C00080649F
:10E5E0008093C00019828601750188249924A1E0D6
:10E5F0003A1651F03A1620F0B2E03B1661F409C029
:10E600000BBFF701779007C0C7010F9477FE782EF4
:10E6100002C0F7017080872D0F940DF22092C60082
:10E620008091C00086FFFCCF8091C0008064809301
:10E63000C000872D8052F401EF70F0708F3520F408
:10E64000E40DF51D708204C0E40DF51D8EE280839B
:10E650000894E11CF11C011D111D0894811C911CE2
:10E6600090E18916910409F0C2CF80E190E0A0E02A
:10E67000B0E0A80EB91ECA1EDB1E198AC2010F9493
:10E68000FAF10F94DCF16A94662009F072CF629679
:10E690000FB6F894DEBF0FBECDBFCF91DF911F91B3
:10E6A0000F91FF90EF90DF90CF90BF90AF909F9031
:10E6B0008F907F906F905F904F903F902F90089534
:10E6C0002F923F924F925F926F927F928F929F9282
:10E6D000AF92BF92CF92DF92EF92FF920F931F9370
:10E6E000DF93CF93CDB7DEB7CD53D1400FB6F894BB
:10E6F000DEBF0FBECDBF01E20EBF0FEF0DBF94B75F
:10E70000F894A89514BE80916000886180936000A1
:10E7100010926000789493FF05C0E0910002F091A0
:10E7200001021995279A2F9A8091C00082608093E8
:10E73000C00080E18093C40088E18093C1000000A4
:10E74000EE24FF24870144E0A42EB12CCC24DD2448
:10E7500024C0C5010197F1F70894E11CF11C011DCB
:10E76000111D21E2E2162EE4F20620E0020720E06D
:10E77000120718F031E0C32ED12CC801B70127ECE5
:10E780003BE140E050E00F9441FE611571058105C9
:10E79000910519F485B1805885B98091C00087FD35
:10E7A00003C0C114D104A9F2A6014F5F5F4FC25E3E
:10E7B000DE4F59834883CE51D140C25EDE4F8881FF
:10E7C0009981CE51D140019711F00D9410FEC05D9A
:10E7D000DE4F19821882C053D14060E0C15DDE4F28
:10E7E0001882CF52D14088249924C35DDE4F19820C
:10E7F0001882CD52D140C05EDE4F188219821A8233
:10E800001B82C052D140CE5CDE4F188219821A8220
:10E810001B82C253D140EE24FF2487010BBFF701B6
:10E8200007911691C45CDE4F19830883CC53D14005
:10E830000D940BFEC25EDE4F28813981CE51D1404E
:10E840002130310509F52091C600C25EDE4F1982E4
:10E850001882CE51D14022C02F5F3F4F4F4F5F4FA4
:10E86000213082E138078AE7480780E0580780F0C6
:10E87000C45CDE4FE881F981CC53D140EF5FFF4F9C
:10E8800019F0EE27FF27099420E030E040E050E047
:10E890008091C00087FFE0CF2091C600C35DDE4FAE
:10E8A00048815981CD52D1404F5F5F4FC35DDE4FEC
:10E8B00059834883CD52D140213209F063C64A3092
:10E8C000510508F05FC60894811C911C53E0851621
:10E8D000910409F059C600E010E018C081E280936D
:10E8E000C6008091C00086FFFCCF8091C00080648C
:10E8F0008093C0002F5F3F4F2931310579F70F9486
:10E90000DCF10F5F1F4F0530110519F020E030E0FA
:10E91000E5CF10920A0210920B0210920C02109294
:10E920000D02109206021092070210920802109235
:10E930000902109202021092030210920402109235
:10E9400005028FEE90EE60E00F94F5F180E191EE1C
:10E9500060E00F94C2F18091C00087FFFCCF9091DE
:10E96000C600903608F09F759032B8F09093C600BC
:10E970008091C00086FFFCCF8091C00080648093AE
:10E98000C000A0E2A093C6008091C00086FFFCCF2B
:10E990008091C00080648093C000983409F4D7C18E
:10E9A0009934B8F4923409F459C1933458F490333B
:10E9B00019F1903308F4E3C59F33A1F1903409F0C5
:10E9C000DEC5BDC0953409F470C1963409F0D7C5D1
:10E9D00098C1923509F42BC2933538F49C3409F46C
:10E9E000F5C1913509F0CBC518C2963509F445C279
:10E9F000993509F0C4C567C483E792EE62E00F94CD
:10EA0000F5F110920602109207021092080210927D
:10EA1000090210920A0210920B0210920C0210923C
:10EA20000D0213C18FE792EE62E00F94F5F18FEEC5
:10EA300090EE60E00F94F5F181E291EE60E00F94CA
:10EA4000C2F187EB91EE60E00F94F5F180E391EE77
:10EA500060E00F94C2F184EE90EE60E00F94F5F167
:10EA60008FE391EE60E00F94C2F186E090E061E008
:10EA700070E00F9434F20F94DCF18DE591EE60E0DC
:10EA80000F94C2F189EC91EE60E00F94F5F18EE401
:10EA900091EE60E00F94C2F183EC91EE60E00F9490
:10EAA000F5F18CE691EE60E00F94C2F18EE10F94E7
:10EAB0000DF288E90F940DF281E00F940DF20F949E
:10EAC000DCF18BE791EE60E00F94C2F119E0E0E039
:10EAD000F0E010935700E4918E2F0F940DF20F94F5
:10EAE000DCF18AE891EE60E00F94C2F1E3E0F0E03F
:10EAF00010935700E4918E2F0F940DF20F94DCF1D8
:10EB000089E991EE60E00F94C2F1E2E0F0E0109349
:10EB10005700E4918E2F0F940DF20F94DCF188EAE8
:10EB200091EE60E00F94C2F1E1E0F0E01093570045
:10EB30001491812F0F940DF20F94DCF107CF8BE825
:10EB400092EE62E00F94F5F18BE492EE60E00F94A8
:10EB5000F5F10F94DCF100E010E019C0C8016F2D51
:10EB60000F947FFEFF2031F489E492EE60E00F9471
:10EB7000C2F10BC0F092C6008091C00086FFFCCFAE
:10EB80008091C00080648093C0000F5F1F4FC80158
:10EB900081519F41A0E0B0E0ABBFFC01F790BAE229
:10EBA000FB1621F0E2E000301E07C1F60F94DCF105
:10EBB0000F94DCF187E592EE60E00F94F5F10F948D
:10EBC000DCF1CC24DD2400E010E01EC0C8010F946D
:10EBD00077FEF82E882331F489E492EE60E00F94FA
:10EBE000C2F10BC08093C6008091C00086FFFCCFAD
:10EBF0008091C00080648093C000FE1419F00894D6
:10EC0000C11CD11C0F5F1F4FC80181519F41A0E063
:10EC1000B0E0ABBFFC01E790FAE2EF1621F022E092
:10EC20000030120799F60F94DCF10F94DCF182E6C4
:10EC300092EE60E00F94C2F1C60161E070E00F94C3
:10EC400034F20F94DCF10F94DCF110920202109276
:10EC50000302109204021092050278CE89E992EE26
:10EC600062E00F94F5F1279A2F9A16C02F9880E052
:10EC700090E0E0EDF7E03197F1F7019684369105E9
:10EC8000C1F72F9A80E090E0E0EDF7E03197F1F7DF
:10EC9000019684369105C1F78091C00087FFE6CFC9
:10ECA0008091C00087FFFCCF64C485EA92EE62E0E9
:10ECB0000F94F5F140910202509103026091040219
:10ECC0007091050281E020E10F9491F2809102029F
:10ECD00090910302A0910402B091050280509F4FD1
:10ECE000AF4FBF4F8093020290930302A0930402A0
:10ECF000B093050280509041A040B04008F426CE69
:10ED0000A4CF83EB92EE62E00F94F5F140910602FE
:10ED100050910702609108027091090280E020E1A1
:10ED20000F9491F28091060290910702A09108023F
:10ED3000B091090280509F4FAF4FBF4F80930602A2
:10ED400090930702A0930802B0930902FFCD80ECD4
:10ED500092EE62E00F94F5F183E792EE60E00F949B
:10ED6000F5F18FE792EE60E00F94F5F18BE892EE0B
:10ED700060E00F94F5F189E992EE60E00F94F5F10F
:10ED800085EA92EE60E00F94F5F183EB92EE60E09D
:10ED90000F94F5F180EC92EE60E00F94F5F187ECC2
:10EDA00092EE60E00F94F5F188ED92EE60E00F9442
:10EDB000F5F18FED92EE60E00F94F5F18AEE92EEB0
:10EDC00060E00F94F5F183E093EEBDCD87EC92EE19
:10EDD00062E00F94F5F181E40F947BF282E40F94EA
:10EDE0007BF283E40F947BF284E40F947BF285E45E
:10EDF0000F947BF286E40F947BF287E40F947BF20E
:10EE000088E40F947BF28AE40F947BF28BE40F94F6
:10EE10007BF28CE40F947BF299CD88ED92EE62E068
:10EE20000F94F5F1772473948824992409C48FED05
:10EE300092EE62E00F94F5F140910A0250910B02BC
:10EE400060910C0270910D0282E020E10F9491F22A
:10EE500080910A0290910B02A0910C02B0910D02D8
:10EE600080509F4FAF4FBF4F80930A0290930B0289
:10EE7000A0930C02B0930D0269CD8AEE92EE62E08F
:10EE80000F94F5F184EE90EE60E00F94F5F18FECC5
:10EE900091EE60E00F94F5F1662477244301CC5D98
:10EEA000DE4F19821882C452D140D401C301B695F5
:10EEB000A79597958795CA5DDE4F88839983AA8326
:10EEC000BB83C652D140CC5DDE4FA881B981C4520C
:10EED000D1401196CC5DDE4FB983A883C452D14096
:10EEE000CD0162E070E00F9434F2B0E2B093C6005E
:10EEF0008091C00086FFFCCF8091C0008064809329
:10EF0000C000EDE2E093C6008091C00086FFFCCF18
:10EF10008091C00080648093C000F0E2F093C6004E
:10EF20008091C00086FFFCCF8091C00080648093F8
:10EF3000C000CA5DDE4FE880F9800A811B81C6529D
:10EF4000D140BB27A12F902F8F2D0F940DF2CA5DBA
:10EF5000DE4F8881C652D1400F940DF2B0E2FB2EF5
:10EF6000F092C6008091C00086FFFCCF8091C00067
:10EF700080648093C0000DE30093C6008091C000C0
:10EF800086FFFCCF8091C00080648093C00010E2B7
:10EF90001093C6008091C00086FFFCCF8091C00016
:10EFA00080648093C0008BBEF3012791C65DDE4F65
:10EFB0002883CA52D140A22EBB24CC24DD2408943D
:10EFC000611C711C811C911C8BBEF3018791282E42
:10EFD0003324442455240894611C711C811C911C09
:10EFE0008BBEF3013791C55DDE4F3883CB52D140E4
:10EFF0000894611C711C811C911C8BBEF30147910C
:10F00000C45DDE4F4883CC52D140ADEFEA2EAFEF66
:10F01000FA2EAFEF0A2FAFEF1A2F6E0C7F1C801E57
:10F02000911E142D032DF22CEE24EA0CFB1C0C1D5A
:10F030001D1D0F940DF220E22093C6008091C000A8
:10F0400086FFFCCF8091C00080648093C000C65DC5
:10F05000DE4F8881CA52D1400F940DF230E23093D6
:10F06000C6008091C00086FFFCCF8091C000806404
:10F070008093C000C45DDE4F8881CC52D1400F9494
:10F080000DF240E24093C6008091C00086FFFCCFA5
:10F090008091C00080648093C000C55DDE4F888190
:10F0A000CB52D1400F940DF250E25093C6008091A4
:10F0B000C00086FFFCCF8091C00080648093C000B8
:10F0C0008FEFE8168FEFF80680E0080780E018075A
:10F0D00031F484E092EE60E00F94C2F1DFC0D80119
:10F0E000C7018070907CA070B0708050904CA040A0
:10F0F000B040D1F52FEF3FE340E050E0E222F322B1
:10F1000004231523CA5DDE4FA880B980CA80DB8046
:10F11000C652D140AE0CBF1CC01ED11EAA0CBB1CD7
:10F12000CC1CDD1C8EE092EE60E00F94C2F1BB2798
:10F13000A12F902F8F2D0F940DF28E2D0F940DF285
:10F1400030E23093C6008091C00086FFFCCF8091F2
:10F15000C00080648093C0004EE34093C60080915D
:10F16000C00086FFFCCF87C08EE09EEFA0E0B0E03D
:10F17000E822F9220A231B239CE0E91694E9F90608
:10F1800090E0090790E0190709F088C0C45DDE4FE0
:10F19000A881CC52D140EA2EFF2400E010E0102FCD
:10F1A0000F2DFE2CEE24C55DDE4FB881CB52D14031
:10F1B000EB0EF11C011D111DD601C501817090706F
:10F1C000A070B070DC0199278827E80EF91E0A1F8D
:10F1D0001B1F20EF30E040E050E0A222B322C42207
:10F1E000D52241E1AA0CBB1CCC1CDD1C4A95D1F7F1
:10F1F000EA0CFB1C0C1D1D1D81E090E0A0E0B0E0BE
:10F20000282239224A225B2235E1220C331C441C7D
:10F21000551C3A95D1F7E20CF31C041D151D57013E
:10F220006801AA0CBB1CCC1CDD1C85E192EE60E0E1
:10F230000F94C2F1C801AA27BB270F940DF2BB2778
:10F24000A12F902F8F2D0F940DF28E2D0F940DF274
:10F2500090E29093C6008091C00086FFFCCF809121
:10F26000C00080648093C000AEE3A093C60080918C
:10F27000C00086FFFCCF8091C00080648093C000F6
:10F28000C601AA27BB270F940DF2BB27AD2D9C2DDD
:10F290008B2D0F940DF28A2D0F940DF20F94DCF14B
:10F2A000CC5DDE4FE881F981C452D140F99709F471
:10F2B0004DCBF4E0EF2EF12C012D112D6E0C7F1CA7
:10F2C000801E911EF2CD83E093EE62E00F94F5F183
:10F2D0008AE192EE60E00F94C2F18091C00087FF56
:10F2E000FCCF1091C6001F751093C6008091C0001E
:10F2F00086FFFCCF8091C00080648093C0000F9493
:10F30000DCF1812F81548A3108F036C1163409F4BA
:10F3100095C0173490F4133409F44EC0143430F40B
:10F320001134F1F0123409F01DC130C0143409F465
:10F3300059C0153409F016C16BC01A3409F4C4C0A1
:10F340001B3438F4173409F48FC0183409F00AC19B
:10F35000A1C01B3409F4D2C01C3409F003C1E8C0B9
:10F360008FEF81B90DC082B1809582B980E090E0C5
:10F37000E0EDF7E03197F1F70196883C9105C1F790
:10F380008091C00087FFEFCF12B8EFC08FEF84B934
:10F390000DC085B1809585B980E090E0E0EDF7E0A3
:10F3A0003197F1F70196883C9105C1F78091C00033
:10F3B00087FFEFCF15B8D9C08FEF87B90DC088B1DF
:10F3C000809588B980E090E0E0EDF7E03197F1F7C3
:10F3D0000196883C9105C1F78091C00087FFEFCF6F
:10F3E00018B8C3C08FEF8AB90DC08BB180958BB9A7
:10F3F00080E090E0E0EDF7E03197F1F70196883C8E
:10F400009105C1F78091C00087FFEFCF1BB8ADC059
:10F410008FEF8DB90DC08EB180958EB980E090E0F0
:10F42000E0EDF7E03197F1F70196883C9105C1F7DF
:10F430008091C00087FFEFCF1EB897C08FEF80BBD1
:10F440000DC081B3809581BB80E090E0E0EDF7E0F6
:10F450003197F1F70196883C9105C1F78091C00082
:10F4600087FFEFCF11BA81C08FEF83BB0DC084B38C
:10F47000809584BB80E090E0E0EDF7E03197F1F714
:10F480000196883C9105C1F78091C00087FFEFCFBE
:10F4900014BA6BC08FEF809301010FC080910201FD
:10F4A00080958093020180E090E0E0EDF7E03197F5
:10F4B000F1F70196883C9105C1F78091C00087FF64
:10F4C000EDCF1092020151C08FEF809304010FC065
:10F4D0008091050180958093050180E090E0E0ED4A
:10F4E000F7E03197F1F70196883C9105C1F78091DB
:10F4F000C00087FFEDCF1092050137C08FEF8093DA
:10F5000007010FC08091080180958093080180E079
:10F5100090E0E0EDF7E03197F1F70196883C910536
:10F52000C1F78091C00087FFEDCF109208011DC088
:10F530008FEF80930A010FC080910B01809580931B
:10F540000B0180E090E0E0EDF7E03197F1F70196F4
:10F55000883C9105C1F78091C00087FFEDCF1092E4
:10F560000B0103C085E292EEEEC98091C00087FFD7
:10F57000FCCF8091C600EAC988E392EEE4C98CE131
:10F5800091EEE1C988249924933011F1943028F444
:10F59000913089F09230B8F408C0953061F195301F
:10F5A000F0F0963009F048C043C02B3109F042C951
:10F5B00091E06BE13FC96227C15DDE4F2883CF52E6
:10F5C000D14092E037C9B22FA0E0622793E032C960
:10F5D000822F90E0A82BB92B622794E02BC92E3004
:10F5E00009F039C3622795E0C05DDE4F19821882A9
:10F5F000C053D1401FC9E1E0F0E0EC0FFD1FC05D3A
:10F60000DE4F08811981C053D140E00FF11F2083E4
:10F610000F5F1F4FC05DDE4F19830883C053D14079
:10F6200062270A171B0709F005C9D80196E002C92D
:10F63000261709F010C303C0973009F0FBC87724E0
:10F640009981933109F412C19431C8F4963009F4C8
:10F65000D8C0973050F4923009F406C1933009F4C1
:10F660006DC0913009F059C253C0913109F477C08F
:10F67000923108F0BBC0903109F04FC2F5C098310B
:10F6800009F487C0993150F4953109F4EFC09531F0
:10F6900008F4C6C1963109F040C2C2C19A3109F4DA
:10F6A0006CC09A3108F491C09B3109F45BC09D3164
:10F6B00009F033C29D81903359F48F81882311F46E
:10F6C0009EE11CC0813011F091E018C098E916C08D
:10F6D000892F807591F0903539F4E0E0F0E089E011
:10F6E0008093570094910AC0983539F4E3E0F0E034
:10F6F00089E080935700949101C090E01A821B82A8
:10F700008D818C831D829E831F8227E030E009C299
:10F710001A8288E08B8381E48C8386E58D8382E581
:10F720008E8389E48F8383E5888780E589878FE5E9
:10F730008A8782E38B872BE030E0F3C18A818139AD
:10F7400041F0823941F0803911F48FE005C080E04A
:10F7500003C082E001C08AE01A828B8344C0772410
:10F76000739482C08D81882311F48EE12CC0813086
:10F7700011F081E028C088E926C01A82E1E0F0E0BB
:10F7800089E08093570084918B831C8224E030E0D1
:10F79000C8C18B81803589F48C81883039F4E2E0EE
:10F7A000F0E089E08093570084910DC0E0E0F0E044
:10F7B00089E080935700849106C0E3E0F0E089E09F
:10F7C0008093570084911A82DFCF8D81836C99E0FA
:10F7D000E1E0F0E0082E90935700E89507B600FCB2
:10F7E000FDCF1A821B8223E030E09BC180EC8A832C
:10F7F000CE5CDE4F188219821A821B82C253D1401E
:10F800008EC18A8190E0A0E0B0E0582F44273327D2
:10F8100022278B8190E0A0E0B0E0DC0199278827C7
:10F82000282B392B4A2B5B2B8D8190E0A0E0B0E098
:10F83000282B392B4A2B5B2B8C8190E0A0E0B0E089
:10F84000BA2FA92F982F8827282B392B4A2B5B2BCF
:10F85000220F331F441F551FC05EDE4F288339839C
:10F860004A835B83C052D1401A8259C13A81C95C34
:10F87000DE4F3883C753D140CA5CDE4F1882C6536F
:10F88000D1408B81C82EDD24CA5CDE4F488159816E
:10F89000C653D140C42AD52A933109F082C0CE5C28
:10F8A000DE4F88819981AA81BB81C253D1408050AB
:10F8B000904CA340B04030F583E0CE5CDE4FE88052
:10F8C000F9800A811B81C253D140F70100935B008C
:10F8D00080935700E89507B600FCFDCFCE5CDE4F65
:10F8E000088119812A813B81C253D14000501F4FAA
:10F8F0002F4F3F4FCE5CDE4F088319832A833B8313
:10F90000C253D140C05EDE4F488159816A817B81FC
:10F91000C052D140DE011B9631E08C9111962C91A2
:10F9200011971296C75CDE4F2883C953D140C85C3B
:10F93000DE4F1882C853D14090E0C85CDE4FE881AA
:10F94000F981C853D1408E2B9F2B0C01FA01609393
:10F950005B0030935700E89511244E5F5F4F6F4F67
:10F960007F4F0EEFE02E0FEFF02ECE0CDF1CC114F8
:10F97000D10499F685E0C05EDE4F088119812A81A5
:10F980003B81C052D140F80120935B008093570027
:10F99000E89507B600FCFDCF81E180935700E8951C
:10F9A00035C0C05EDE4F88819981AA81BB81C0527B
:10F9B000D140B695A795979587957C018601ABE0D8
:10F9C000AA2EB12CAC0EBD1E0BC0D5016D915D01F0
:10F9D000C7010F947FFE0894E11CF11C01501040F8
:10F9E0000115110591F7A60160E070E0440F551F65
:10F9F000661F771FC05EDE4FE880F9800A811B8199
:10FA0000C052D1404E0D5F1D601F711F1A82C05E33
:10FA1000DE4F488359836A837B83C052D1407FC0C5
:10FA2000FA80C55CDE4FF882CB53D140C65CDE4F16
:10FA30001882CA53D1408B81C82EDD24C65CDE4FAC
:10FA400008811981CA53D140C02AD12A1A828981DA
:10FA5000BE016D5F7F4F843121F59601C05EDE4FA0
:10FA6000E880F9800A811B81C052D1400BBFF701A9
:10FA700087919691DB018C9311969C936E5F7F4FDB
:10FA8000D801C7010296A11DB11DC05EDE4F88835B
:10FA90009983AA83BB83C052D14022503040F1F6F3
:10FAA00036C0C05EDE4F288139814A815B81C052F9
:10FAB000D1400894C108D108760100E010E0089414
:10FAC000C11CD11C0894E11CF11C011D111DE20E8A
:10FAD000F31E041F151F21BDBB27A52F942F832FB5
:10FAE00082BD2F5F3F4F4F4F5F4FF89A80B5DB01CC
:10FAF0008D93BD012E153F054007510761F7C05E8C
:10FB0000DE4F288339834A835B83C052D1409601FC
:10FB10002D5F3F4FFB01108204C080EC8A8322E0FE
:10FB200030E08BE18093C6008091C00086FFFCCF5F
:10FB30008091C00080648093C000C15DDE4FF88179
:10FB4000CF52D140F093C6008091C00086FFFCCF19
:10FB50008091C00080648093C000432F3093C60022
:10FB60008091C00086FFFCCF8091C00080648093AC
:10FB7000C000922F2093C6008091C00086FFFCCF6A
:10FB80008091C00080648093C0008EE08093C600A6
:10FB90008091C00086FFFCCF8091C000806480937C
:10FBA000C00065E1C15DDE4FE880CF52D1406E25D7
:10FBB00069276427FE01319610C090819093C6009A
:10FBC0008091C00086FFFCCF31968091C000806498
:10FBD0008093C0006927215030402115310569F715
:10FBE0006093C6008091C00086FFFCCF8091C0006A
:10FBF00080648093C00085B1805885B9772081F4F6
:10FC0000C15DDE4F0881CF52D1400F5FC15DDE4F35
:10FC10000883CF52D14090E0A0E0B0E00D941AF4F8
:10FC200027982F9880E090E020ED37E0F901319798
:10FC3000F1F7019684369105C9F700008091C00064
:10FC40008D7F8093C00081E180935700E895EE2777
:10FC5000FF270994FFCF90E00D941AF497FB092E2B
:10FC600007260AD077FD04D02ED006D000201AF443
:10FC7000709561957F4F0895F6F7909581959F4F08
:10FC80000895A1E21A2EAA1BBB1BFD010DC0AA1FDD
:10FC9000BB1FEE1FFF1FA217B307E407F50720F0F5
:10FCA000A21BB30BE40BF50B661F771F881F991F70
:10FCB0001A9469F760957095809590959B01AC01B9
:10FCC000BD01CF010895AA1BBB1B51E107C0AA1FAC
:10FCD000BB1FA617B70710F0A61BB70B881F991FED
:10FCE0005A95A9F780959095BC01CD010895F99991
:10FCF000FECF92BD81BDF89A992780B50895262F31
:10FD0000F999FECF1FBA92BD81BD20BD0FB6F89400
:0EFD1000FA9AF99A0FBE01960895F894FFCF63
:00000001FF
